{
  "contractName": "EncryptedVoting",
  "abi": [
    {
      "inputs": [
        {
          "internalType": "uint256",
          "name": "_candidateCount",
          "type": "uint256"
        },
        {
          "internalType": "address",
          "name": "_verifier",
          "type": "address"
        }
      ],
      "stateMutability": "nonpayable",
      "type": "constructor"
    },
    {
      "inputs": [],
      "name": "candidateCount",
      "outputs": [
        {
          "internalType": "uint256",
          "name": "",
          "type": "uint256"
        }
      ],
      "stateMutability": "view",
      "type": "function",
      "constant": true
    },
    {
      "inputs": [],
      "name": "verifier",
      "outputs": [
        {
          "internalType": "contract ZKProofVerifier",
          "name": "",
          "type": "address"
        }
      ],
      "stateMutability": "view",
      "type": "function",
      "constant": true
    },
    {
      "inputs": [
        {
          "internalType": "uint256",
          "name": "candidateId",
          "type": "uint256"
        },
        {
          "internalType": "bytes",
          "name": "encryptedVote",
          "type": "bytes"
        },
        {
          "internalType": "bytes",
          "name": "proof",
          "type": "bytes"
        }
      ],
      "name": "vote",
      "outputs": [],
      "stateMutability": "nonpayable",
      "type": "function"
    },
    {
      "inputs": [
        {
          "internalType": "uint256",
          "name": "candidateId",
          "type": "uint256"
        }
      ],
      "name": "getVotes",
      "outputs": [
        {
          "internalType": "bytes",
          "name": "",
          "type": "bytes"
        }
      ],
      "stateMutability": "view",
      "type": "function",
      "constant": true
    }
  ],
  "bytecode": "0x608060405234801561001057600080fd5b50604051610b7c380380610b7c8339818101604052810190610032919061011a565b8160008190555080600360006101000a81548173ffffffffffffffffffffffffffffffffffffffff021916908373ffffffffffffffffffffffffffffffffffffffff160217905550505061015a565b600080fd5b6000819050919050565b61009981610086565b81146100a457600080fd5b50565b6000815190506100b681610090565b92915050565b600073ffffffffffffffffffffffffffffffffffffffff82169050919050565b60006100e7826100bc565b9050919050565b6100f7816100dc565b811461010257600080fd5b50565b600081519050610114816100ee565b92915050565b6000806040838503121561013157610130610081565b5b600061013f858286016100a7565b925050602061015085828601610105565b9150509250929050565b610a13806101696000396000f3fe608060405234801561001057600080fd5b506004361061004c5760003560e01c806329356542146100515780632b7ac3f31461006d578063a9a981a31461008b578063ff981099146100a9575b600080fd5b61006b600480360381019061006691906104bc565b6100d9565b005b610075610312565b60405161008291906105d0565b60405180910390f35b610093610338565b6040516100a091906105fa565b60405180910390f35b6100c360048036038101906100be9190610615565b61033e565b6040516100d091906106d2565b60405180910390f35b610121600260003373ffffffffffffffffffffffffffffffffffffffff1673ffffffffffffffffffffffffffffffffffffffff168152602001908152602001600020546103a7565b610160576040517f08c379a000000000000000000000000000000000000000000000000000000000815260040161015790610751565b60405180910390fd5b60005485106101a4576040517f08c379a000000000000000000000000000000000000000000000000000000000815260040161019b906107bd565b60405180910390fd5b600360009054906101000a900473ffffffffffffffffffffffffffffffffffffffff1673ffffffffffffffffffffffffffffffffffffffff166355c265fe83836040518363ffffffff1660e01b8152600401610201929190610819565b602060405180830381865afa15801561021e573d6000803e3d6000fd5b505050506040513d601f19601f820116820180604052508101906102429190610875565b610281576040517f08c379a0000000000000000000000000000000000000000000000000000000008152600401610278906108ee565b60405180910390fd5b61028b60016103b3565b600260003373ffffffffffffffffffffffffffffffffffffffff1673ffffffffffffffffffffffffffffffffffffffff168152602001908152602001600020819055506102f460016000878152602001908152602001600020546102ef60016103ce565b6103d8565b60016000878152602001908152602001600020819055505050505050565b600360009054906101000a900473ffffffffffffffffffffffffffffffffffffffff1681565b60005481565b60606000548210610384576040517f08c379a000000000000000000000000000000000000000000000000000000000815260040161037b9061095a565b60405180910390fd5b6103a060016000848152602001908152602001600020546103ee565b9050919050565b60008082149050919050565b6000816103c15760006103c4565b60015b60ff169050919050565b6000819050919050565b600081836103e691906109a9565b905092915050565b60608160405160200161040191906105fa565b6040516020818303038152906040529050919050565b600080fd5b600080fd5b6000819050919050565b61043481610421565b811461043f57600080fd5b50565b6000813590506104518161042b565b92915050565b600080fd5b600080fd5b600080fd5b60008083601f84011261047c5761047b610457565b5b8235905067ffffffffffffffff8111156104995761049861045c565b5b6020830191508360018202830111156104b5576104b4610461565b5b9250929050565b6000806000806000606086880312156104d8576104d7610417565b5b60006104e688828901610442565b955050602086013567ffffffffffffffff8111156105075761050661041c565b5b61051388828901610466565b9450945050604086013567ffffffffffffffff8111156105365761053561041c565b5b61054288828901610466565b92509250509295509295909350565b600073ffffffffffffffffffffffffffffffffffffffff82169050919050565b6000819050919050565b600061059661059161058c84610551565b610571565b610551565b9050919050565b60006105a88261057b565b9050919050565b60006105ba8261059d565b9050919050565b6105ca816105af565b82525050565b60006020820190506105e560008301846105c1565b92915050565b6105f481610421565b82525050565b600060208201905061060f60008301846105eb565b92915050565b60006020828403121561062b5761062a610417565b5b600061063984828501610442565b91505092915050565b600081519050919050565b600082825260208201905092915050565b60005b8381101561067c578082015181840152602081019050610661565b60008484015250505050565b6000601f19601f8301169050919050565b60006106a482610642565b6106ae818561064d565b93506106be81856020860161065e565b6106c781610688565b840191505092915050565b600060208201905081810360008301526106ec8184610699565b905092915050565b600082825260208201905092915050565b7f416c726561647920766f74656400000000000000000000000000000000000000600082015250565b600061073b600d836106f4565b915061074682610705565b602082019050919050565b6000602082019050818103600083015261076a8161072e565b9050919050565b7f496e76616c69642063616e646964617465000000000000000000000000000000600082015250565b60006107a76011836106f4565b91506107b282610771565b602082019050919050565b600060208201905081810360008301526107d68161079a565b9050919050565b82818337600083830152505050565b60006107f8838561064d565b93506108058385846107dd565b61080e83610688565b840190509392505050565b600060208201905081810360008301526108348184866107ec565b90509392505050565b60008115159050919050565b6108528161083d565b811461085d57600080fd5b50565b60008151905061086f81610849565b92915050565b60006020828403121561088b5761088a610417565b5b600061089984828501610860565b91505092915050565b7f496e76616c6964205a4b2070726f6f6600000000000000000000000000000000600082015250565b60006108d86010836106f4565b91506108e3826108a2565b602082019050919050565b60006020820190508181036000830152610907816108cb565b9050919050565b7f496e76616c69642063616e646964617465204944000000000000000000000000600082015250565b60006109446014836106f4565b915061094f8261090e565b602082019050919050565b6000602082019050818103600083015261097381610937565b9050919050565b7f4e487b7100000000000000000000000000000000000000000000000000000000600052601160045260246000fd5b60006109b482610421565b91506109bf83610421565b92508282019050808211156109d7576109d661097a565b5b9291505056fea26469706673582212209e810791044fcb472c9feae7222afcb1628dea89b2deacaeee1b12e6eb81e24564736f6c63430008130033",
  "immutableReferences": {},
  "source": "// SPDX-License-Identifier: MIT\npragma solidity ^0.8.19;\n\nimport \"./fhevm/lib/TFHE.sol\";\nimport \"./ZKProofVerifier.sol\";\n\ncontract EncryptedVoting {\n    using TFHE for *;\n\n    uint256 public candidateCount;\n    mapping(uint256 => TFHE.euint32) private votes;\n    mapping(address => TFHE.ebool) private hasVoted;\n\n    ZKProofVerifier public verifier;\n\n    constructor(uint256 _candidateCount, address _verifier) {\n        candidateCount = _candidateCount;\n        verifier = ZKProofVerifier(_verifier);\n    }\n\n    function vote(\n        uint256 candidateId,\n        bytes calldata encryptedVote,\n        bytes calldata proof\n    ) public {\n        require(TFHE.isFalse(hasVoted[msg.sender]), \"Already voted\");\n        require(candidateId < candidateCount, \"Invalid candidate\");\n        require(verifier.verifyProof(proof), \"Invalid ZK proof\");\n\n        hasVoted[msg.sender] = TFHE.asEbool(true);\n        votes[candidateId] = TFHE.add(votes[candidateId], TFHE.asEuint32(1));\n    }\n\n    function getVotes(uint256 candidateId) public view returns (bytes memory) {\n        require(candidateId < candidateCount, \"Invalid candidate ID\");\n        return TFHE.decrypt(votes[candidateId]);\n    }\n}\n",
  "sourcePath": "/workspaces/VotingFHE/contracts/EncryptedVoting.sol",
  "compiler": {
    "name": "solc",
    "version": "0.8.19+commit.7dd6d404.Emscripten.clang"
  },
  "schemaVersion": "3.4.16",
  "updatedAt": "2025-04-11T07:13:42.751Z",
  "networkType": "ethereum",
  "devdoc": {
    "kind": "dev",
    "methods": {},
    "version": 1
  },
  "userdoc": {
    "kind": "user",
    "methods": {},
    "version": 1
  }
}