{
  "contractName": "EncryptedMemberCard",
  "abi": [
    {
      "inputs": [],
      "stateMutability": "nonpayable",
      "type": "constructor"
    },
    {
      "anonymous": false,
      "inputs": [
        {
          "indexed": true,
          "internalType": "address",
          "name": "user",
          "type": "address"
        }
      ],
      "name": "Joined",
      "type": "event"
    },
    {
      "inputs": [],
      "name": "join",
      "outputs": [],
      "stateMutability": "nonpayable",
      "type": "function"
    },
    {
      "inputs": [],
      "name": "checkMembership",
      "outputs": [
        {
          "internalType": "bytes",
          "name": "",
          "type": "bytes"
        }
      ],
      "stateMutability": "view",
      "type": "function"
    }
  ],
  "bytecode": "0x608060405234801561001057600080fd5b506103b6806100206000396000f3fe608060405234801561001057600080fd5b50600436106100365760003560e01c8063a70cce3d1461003b578063b688a36314610059575b600080fd5b610043610063565b60405161005091906102ab565b60405180910390f35b6100616100d0565b005b60606100ac6000803373ffffffffffffffffffffffffffffffffffffffff1673ffffffffffffffffffffffffffffffffffffffff168152602001908152602001600020546101e7565b6040516020016100bc91906102e8565b604051602081830303815290604052905090565b6101176000803373ffffffffffffffffffffffffffffffffffffffff1673ffffffffffffffffffffffffffffffffffffffff168152602001908152602001600020546101f4565b610156576040517f08c379a000000000000000000000000000000000000000000000000000000000815260040161014d90610360565b60405180910390fd5b6101606001610200565b6000803373ffffffffffffffffffffffffffffffffffffffff1673ffffffffffffffffffffffffffffffffffffffff168152602001908152602001600020819055503373ffffffffffffffffffffffffffffffffffffffff167f7073afa60b48e833a1a66ebb442bc8e0d19e9f3cc05f34bdcd1da22c8d87f27560405160405180910390a2565b6000600182149050919050565b60008082149050919050565b60008161020e576000610211565b60015b60ff169050919050565b600081519050919050565b600082825260208201905092915050565b60005b8381101561025557808201518184015260208101905061023a565b60008484015250505050565b6000601f19601f8301169050919050565b600061027d8261021b565b6102878185610226565b9350610297818560208601610237565b6102a081610261565b840191505092915050565b600060208201905081810360008301526102c58184610272565b905092915050565b60008115159050919050565b6102e2816102cd565b82525050565b60006020820190506102fd60008301846102d9565b92915050565b600082825260208201905092915050565b7f416c72656164792061206d656d62657200000000000000000000000000000000600082015250565b600061034a601083610303565b915061035582610314565b602082019050919050565b600060208201905081810360008301526103798161033d565b905091905056fea26469706673582212209ee49ee5b4742a5a89cd5618ed237903e962cdeee3df49541fa7272f70c7d54464736f6c63430008130033",
  "immutableReferences": {},
  "source": "// SPDX-License-Identifier: MIT\npragma solidity ^0.8.19;\n\nimport \"./fhevm/lib/TFHE.sol\";\n\ncontract EncryptedMemberCard {\n    using TFHE for *;\n\n    mapping(address => TFHE.ebool) private isMember;\n\n    event Joined(address indexed user);\n    \n    constructor() {}\n\n    // ng k lm thnh vin\n    function join() public {\n        require(TFHE.isFalse(isMember[msg.sender]), \"Already a member\");\n        isMember[msg.sender] = TFHE.asEbool(true);\n        emit Joined(msg.sender);\n    }\n\n    // Tr v thng tin  l thnh vin cha (di dng m ha)\n    function checkMembership() public view returns (bytes memory) {\n        return abi.encode(TFHE.isTrue(isMember[msg.sender]));\n    }\n}\n",
  "sourcePath": "/workspaces/VotingFHE/contracts/EncryptedMemberCard.sol",
  "compiler": {
    "name": "solc",
    "version": "0.8.19+commit.7dd6d404.Emscripten.clang"
  },
  "schemaVersion": "3.4.16",
  "updatedAt": "2025-04-11T07:27:55.506Z",
  "devdoc": {
    "kind": "dev",
    "methods": {},
    "version": 1
  },
  "userdoc": {
    "kind": "user",
    "methods": {},
    "version": 1
  }
}