{
  "contractName": "EncryptedVoting",
  "abi": [
    {
      "inputs": [
        {
          "internalType": "uint256",
          "name": "_candidateCount",
          "type": "uint256"
        }
      ],
      "stateMutability": "nonpayable",
      "type": "constructor"
    },
    {
      "inputs": [],
      "name": "candidateCount",
      "outputs": [
        {
          "internalType": "uint256",
          "name": "",
          "type": "uint256"
        }
      ],
      "stateMutability": "view",
      "type": "function",
      "constant": true
    },
    {
      "inputs": [
        {
          "internalType": "uint256",
          "name": "candidateId",
          "type": "uint256"
        },
        {
          "internalType": "bytes",
          "name": "encryptedVote",
          "type": "bytes"
        }
      ],
      "name": "vote",
      "outputs": [],
      "stateMutability": "nonpayable",
      "type": "function"
    },
    {
      "inputs": [
        {
          "internalType": "uint256",
          "name": "candidateId",
          "type": "uint256"
        }
      ],
      "name": "getVotes",
      "outputs": [
        {
          "internalType": "bytes",
          "name": "",
          "type": "bytes"
        }
      ],
      "stateMutability": "view",
      "type": "function",
      "constant": true
    }
  ],
  "bytecode": "0x608060405234801561001057600080fd5b5060405161072f38038061072f8339818101604052810190610032919061007a565b80600081905550506100a7565b600080fd5b6000819050919050565b61005781610044565b811461006257600080fd5b50565b6000815190506100748161004e565b92915050565b6000602082840312156100905761008f61003f565b5b600061009e84828501610065565b91505092915050565b610679806100b66000396000f3fe608060405234801561001057600080fd5b50600436106100415760003560e01c8063a9a981a314610046578063b88b82ba14610064578063ff98109914610080575b600080fd5b61004e6100b0565b60405161005b9190610302565b60405180910390f35b61007e600480360381019061007991906103b8565b6100b6565b005b61009a60048036038101906100959190610418565b610210565b6040516100a791906104d5565b60405180910390f35b60005481565b6100fe600260003373ffffffffffffffffffffffffffffffffffffffff1673ffffffffffffffffffffffffffffffffffffffff16815260200190815260200160002054610279565b61013d576040517f08c379a000000000000000000000000000000000000000000000000000000000815260040161013490610554565b60405180910390fd5b6000548310610181576040517f08c379a0000000000000000000000000000000000000000000000000000000008152600401610178906105c0565b60405180910390fd5b61018b6001610285565b600260003373ffffffffffffffffffffffffffffffffffffffff1673ffffffffffffffffffffffffffffffffffffffff168152602001908152602001600020819055506101f460016000858152602001908152602001600020546101ef60016102a0565b6102aa565b6001600085815260200190815260200160002081905550505050565b60606000548210610256576040517f08c379a000000000000000000000000000000000000000000000000000000000815260040161024d906105c0565b60405180910390fd5b61027260016000848152602001908152602001600020546102c0565b9050919050565b60008082149050919050565b600081610293576000610296565b60015b60ff169050919050565b6000819050919050565b600081836102b8919061060f565b905092915050565b6060816040516020016102d39190610302565b6040516020818303038152906040529050919050565b6000819050919050565b6102fc816102e9565b82525050565b600060208201905061031760008301846102f3565b92915050565b600080fd5b600080fd5b610330816102e9565b811461033b57600080fd5b50565b60008135905061034d81610327565b92915050565b600080fd5b600080fd5b600080fd5b60008083601f84011261037857610377610353565b5b8235905067ffffffffffffffff81111561039557610394610358565b5b6020830191508360018202830111156103b1576103b061035d565b5b9250929050565b6000806000604084860312156103d1576103d061031d565b5b60006103df8682870161033e565b935050602084013567ffffffffffffffff811115610400576103ff610322565b5b61040c86828701610362565b92509250509250925092565b60006020828403121561042e5761042d61031d565b5b600061043c8482850161033e565b91505092915050565b600081519050919050565b600082825260208201905092915050565b60005b8381101561047f578082015181840152602081019050610464565b60008484015250505050565b6000601f19601f8301169050919050565b60006104a782610445565b6104b18185610450565b93506104c1818560208601610461565b6104ca8161048b565b840191505092915050565b600060208201905081810360008301526104ef818461049c565b905092915050565b600082825260208201905092915050565b7f596f75206861766520616c726561647920766f74656400000000000000000000600082015250565b600061053e6016836104f7565b915061054982610508565b602082019050919050565b6000602082019050818103600083015261056d81610531565b9050919050565b7f496e76616c69642063616e646964617465204944000000000000000000000000600082015250565b60006105aa6014836104f7565b91506105b582610574565b602082019050919050565b600060208201905081810360008301526105d98161059d565b9050919050565b7f4e487b7100000000000000000000000000000000000000000000000000000000600052601160045260246000fd5b600061061a826102e9565b9150610625836102e9565b925082820190508082111561063d5761063c6105e0565b5b9291505056fea26469706673582212205586b44d9083e71324f78aaf2b2de41407a9639f1a13b0441742919bc9ae897164736f6c63430008130033",
  "immutableReferences": {},
  "source": "// SPDX-License-Identifier: MIT\npragma solidity ^0.8.19;\n\nimport \"./fhevm/lib/TFHE.sol\";\n\ncontract EncryptedVoting {\n    using TFHE for *;\n\n    uint256 public candidateCount;\n    mapping(uint256 => TFHE.euint32) private votes; // S phiu c m ha\n    mapping(address => TFHE.ebool) private hasVoted; // Trng thi b phiu c m ha\n\n    constructor(uint256 _candidateCount) {\n        candidateCount = _candidateCount;\n    }\n\n    function vote(uint256 candidateId, bytes calldata encryptedVote) public {\n        require(TFHE.isFalse(hasVoted[msg.sender]), \"You have already voted\");\n        require(candidateId < candidateCount, \"Invalid candidate ID\");\n\n        hasVoted[msg.sender] = TFHE.asEbool(true);\n        votes[candidateId] = TFHE.add(votes[candidateId], TFHE.asEuint32(1));\n    }\n\n    function getVotes(uint256 candidateId) public view returns (bytes memory) {\n        require(candidateId < candidateCount, \"Invalid candidate ID\");\n        return TFHE.decrypt(votes[candidateId]); // Ch ngi c quyn mi gii m c\n    }\n}",
  "sourcePath": "/workspaces/VotingFHE/contracts/EncryptedVoting.sol",
  "compiler": {
    "name": "solc",
    "version": "0.8.19+commit.7dd6d404.Emscripten.clang"
  },
  "schemaVersion": "3.4.16",
  "updatedAt": "2025-04-11T01:33:53.971Z",
  "networkType": "ethereum",
  "devdoc": {
    "kind": "dev",
    "methods": {},
    "version": 1
  },
  "userdoc": {
    "kind": "user",
    "methods": {},
    "version": 1
  }
}